{
  "transactions": [
    {
      "hash": "0xdddf27a4816d27dd7a753448c74ed308a90a6c18a5500fda5688180d8f962752",
      "transactionType": "CALL",
      "contractName": null,
      "contractAddress": "0x42A6a3d5e8651Ce1c56EC418301DDaf7513B8aAd",
      "function": "registerOwner(uint256,uint256,uint256,string)",
      "arguments": [
        "0",
        "0",
        "100",
        "\"asdf\""
      ],
      "transaction": {
        "type": "0x02",
        "from": "0x4bb2ff771cbbcac90e5113e7ef9a26ee73d6e03f",
        "to": "0x42a6a3d5e8651ce1c56ec418301ddaf7513b8aad",
        "gas": "0x2fa59",
        "value": "0x0",
        "data": "0x49561520000000000000000000000000000000000000000000000000000000000000000000000000000000000000000000000000000000000000000000000000000000000000000000000000000000000000000000000000000000000000000000000064000000000000000000000000000000000000000000000000000000000000008000000000000000000000000000000000000000000000000000000000000000046173646600000000000000000000000000000000000000000000000000000000",
        "nonce": "0x3",
        "accessList": []
      },
      "additionalContracts": [],
      "isFixedGasLimit": false
    },
    {
      "hash": "0xa1c224470c088197aea9b5523c3575caa1942716573ac800949755c74b2c62f2",
      "transactionType": "CALL",
      "contractName": null,
      "contractAddress": "0xa612237E6302b07230bbe4aebE978eFcDbBAbA24",
      "function": "mint(uint256)",
      "arguments": [
        "0"
      ],
      "transaction": {
        "type": "0x02",
        "from": "0x4bb2ff771cbbcac90e5113e7ef9a26ee73d6e03f",
        "to": "0xa612237e6302b07230bbe4aebe978efcdbbaba24",
        "gas": "0x2a6f3",
        "value": "0x64",
        "data": "0xa0712d680000000000000000000000000000000000000000000000000000000000000000",
        "nonce": "0x4",
        "accessList": []
      },
      "additionalContracts": [],
      "isFixedGasLimit": false
    },
    {
      "hash": "0xfcca560412adba69c58c614047d55a674a62399a738a73ee66a1ddddd12b2c15",
      "transactionType": "CALL",
      "contractName": null,
      "contractAddress": "0x59fE0075F6AC7b8D9bFf8e36E814568ed45c30ad",
      "function": "mint(address,uint256)",
      "arguments": [
        "0xa68868BDcFFE7B6fbb1637e72DC8a2959d426D13",
        "0"
      ],
      "transaction": {
        "type": "0x02",
        "from": "0x4bb2ff771cbbcac90e5113e7ef9a26ee73d6e03f",
        "to": "0x59fe0075f6ac7b8d9bff8e36e814568ed45c30ad",
        "gas": "0x29d1b",
        "value": "0x0",
        "data": "0x40c10f19000000000000000000000000a68868bdcffe7b6fbb1637e72dc8a2959d426d130000000000000000000000000000000000000000000000000000000000000000",
        "nonce": "0x5",
        "accessList": []
      },
      "additionalContracts": [],
      "isFixedGasLimit": false
    }
  ],
  "receipts": [
    {
      "transactionHash": "0xdddf27a4816d27dd7a753448c74ed308a90a6c18a5500fda5688180d8f962752",
      "transactionIndex": "0x6",
      "blockHash": "0x94bec898298a3f11345ecd84960cbbe9659df73774a345474ae36d4aaa328ddd",
      "blockNumber": "0x55d8e0",
      "from": "0x4Bb2fF771cbBCAC90E5113e7Ef9a26ee73D6E03f",
      "to": "0x42A6a3d5e8651Ce1c56EC418301DDaf7513B8aAd",
      "cumulativeGasUsed": "0x6e7f6",
      "gasUsed": "0x227ee",
      "contractAddress": null,
      "logs": [
        {
          "address": "0x42A6a3d5e8651Ce1c56EC418301DDaf7513B8aAd",
          "topics": [
            "0xddf252ad1be2c89b69c2b068fc378daa952ba7f163c4a11628f55a4df523b3ef",
            "0x0000000000000000000000000000000000000000000000000000000000000000",
            "0x0000000000000000000000004bb2ff771cbbcac90e5113e7ef9a26ee73d6e03f",
            "0x0000000000000000000000000000000000000000000000000000000000000000"
          ],
          "data": "0x",
          "blockHash": "0x94bec898298a3f11345ecd84960cbbe9659df73774a345474ae36d4aaa328ddd",
          "blockNumber": "0x55d8e0",
          "transactionHash": "0xdddf27a4816d27dd7a753448c74ed308a90a6c18a5500fda5688180d8f962752",
          "transactionIndex": "0x6",
          "logIndex": "0x4",
          "removed": false
        }
      ],
      "status": "0x1",
      "logsBloom": "0x00000000000000000000000000000000000000100000000000000000000000000000000000000000000000000000000000000000000000000000000000400000400000000000000000000008000000000000000000000000000000000000000000000000020000000000000000000800000000000000000000000010000000000000000000000000000000000000000000000040000020000000000000000000000000000000000000000000000000000000000000000000000000000000000000000002000000000000000000000000000000000000000000000000000020000000000000000000000000000000000000800000000000000000000000000000",
      "type": "0x2",
      "effectiveGasPrice": "0xb2d060bc"
    },
    {
      "transactionHash": "0xa1c224470c088197aea9b5523c3575caa1942716573ac800949755c74b2c62f2",
      "transactionIndex": "0x7",
      "blockHash": "0x94bec898298a3f11345ecd84960cbbe9659df73774a345474ae36d4aaa328ddd",
      "blockNumber": "0x55d8e0",
      "from": "0x4Bb2fF771cbBCAC90E5113e7Ef9a26ee73D6E03f",
      "to": "0xa612237E6302b07230bbe4aebE978eFcDbBAbA24",
      "cumulativeGasUsed": "0x8d383",
      "gasUsed": "0x1eb8d",
      "contractAddress": null,
      "logs": [
        {
          "address": "0xa612237E6302b07230bbe4aebE978eFcDbBAbA24",
          "topics": [
            "0xddf252ad1be2c89b69c2b068fc378daa952ba7f163c4a11628f55a4df523b3ef",
            "0x0000000000000000000000000000000000000000000000000000000000000000",
            "0x0000000000000000000000004bb2ff771cbbcac90e5113e7ef9a26ee73d6e03f",
            "0x0000000000000000000000000000000000000000000000000000000000000000"
          ],
          "data": "0x",
          "blockHash": "0x94bec898298a3f11345ecd84960cbbe9659df73774a345474ae36d4aaa328ddd",
          "blockNumber": "0x55d8e0",
          "transactionHash": "0xa1c224470c088197aea9b5523c3575caa1942716573ac800949755c74b2c62f2",
          "transactionIndex": "0x7",
          "logIndex": "0x5",
          "removed": false
        }
      ],
      "status": "0x1",
      "logsBloom": "0x00000000000000000000000000000000000000100000000000000000000000000000000000000000000000000000000000010000000000000000000000400000000000000000000000000008000000000000000000000000000000000000000000000000020000000000000000000800000000000000000000000010000000000000000000000000000000000000000000000000000020000000000000000000000000000000000000000000000000000000000000000000000000000000000000000002000000000000000000000000000000000000000000000000000021000008000000000000000000000000000000000000000000000000000000000000",
      "type": "0x2",
      "effectiveGasPrice": "0xb2d060bc"
    },
    {
      "transactionHash": "0xfcca560412adba69c58c614047d55a674a62399a738a73ee66a1ddddd12b2c15",
      "transactionIndex": "0x8",
      "blockHash": "0x94bec898298a3f11345ecd84960cbbe9659df73774a345474ae36d4aaa328ddd",
      "blockNumber": "0x55d8e0",
      "from": "0x4Bb2fF771cbBCAC90E5113e7Ef9a26ee73D6E03f",
      "to": "0x59fE0075F6AC7b8D9bFf8e36E814568ed45c30ad",
      "cumulativeGasUsed": "0xab7f0",
      "gasUsed": "0x1e46d",
      "contractAddress": null,
      "logs": [
        {
          "address": "0x59fE0075F6AC7b8D9bFf8e36E814568ed45c30ad",
          "topics": [
            "0xddf252ad1be2c89b69c2b068fc378daa952ba7f163c4a11628f55a4df523b3ef",
            "0x0000000000000000000000000000000000000000000000000000000000000000",
            "0x000000000000000000000000a68868bdcffe7b6fbb1637e72dc8a2959d426d13",
            "0x0000000000000000000000000000000000000000000000000000000000000000"
          ],
          "data": "0x",
          "blockHash": "0x94bec898298a3f11345ecd84960cbbe9659df73774a345474ae36d4aaa328ddd",
          "blockNumber": "0x55d8e0",
          "transactionHash": "0xfcca560412adba69c58c614047d55a674a62399a738a73ee66a1ddddd12b2c15",
          "transactionIndex": "0x8",
          "logIndex": "0x6",
          "removed": false
        }
      ],
      "status": "0x1",
      "logsBloom": "0x00000000000000000000000000000000000000000000000000000000000000000000000000000000000000000000000000000000000000000000000000000000000000000000000000000008000000000000000000000000000000000400000000000000020100000000000000000800000000000000000000000010000000000000000000000000000000000000000000000000000000000000000000000000000000000000000000080000000000000000000000000002000000000000000000000002000000000000000000000000000040000000000000000000000020000000000000000000000000000000000000000000008000000000000000000000",
      "type": "0x2",
      "effectiveGasPrice": "0xb2d060bc"
    }
  ],
  "libraries": [],
  "pending": [],
  "returns": {},
  "timestamp": 1712216425,
  "chain": 11155111,
  "commit": "f2752fb"
}